{
  "_format": "hh-sol-artifact-1",
  "contractName": "CrowdFunding",
  "sourceName": "contracts/CrowdFunding.sol",
  "abi": [
    {
      "anonymous": false,
      "inputs": [
        {
          "indexed": false,
          "internalType": "uint256",
          "name": "campaignId",
          "type": "uint256"
        },
        {
          "indexed": false,
          "internalType": "address",
          "name": "owner",
          "type": "address"
        },
        {
          "indexed": false,
          "internalType": "string",
          "name": "title",
          "type": "string"
        },
        {
          "indexed": false,
          "internalType": "uint256",
          "name": "targetAmount",
          "type": "uint256"
        },
        {
          "indexed": false,
          "internalType": "uint256",
          "name": "deadline",
          "type": "uint256"
        }
      ],
      "name": "CampaignCreated",
      "type": "event"
    },
    {
      "inputs": [],
      "name": "campaignCount",
      "outputs": [
        {
          "internalType": "uint256",
          "name": "",
          "type": "uint256"
        }
      ],
      "stateMutability": "view",
      "type": "function"
    },
    {
      "inputs": [
        {
          "internalType": "uint256",
          "name": "",
          "type": "uint256"
        }
      ],
      "name": "campaigns",
      "outputs": [
        {
          "internalType": "address payable",
          "name": "owner",
          "type": "address"
        },
        {
          "internalType": "string",
          "name": "title",
          "type": "string"
        },
        {
          "internalType": "string",
          "name": "description",
          "type": "string"
        },
        {
          "internalType": "uint256",
          "name": "targetAmount",
          "type": "uint256"
        },
        {
          "internalType": "uint256",
          "name": "deadline",
          "type": "uint256"
        },
        {
          "internalType": "uint256",
          "name": "amountRaised",
          "type": "uint256"
        },
        {
          "internalType": "bool",
          "name": "withdrawn",
          "type": "bool"
        }
      ],
      "stateMutability": "view",
      "type": "function"
    },
    {
      "inputs": [
        {
          "internalType": "uint256",
          "name": "_campaignCount",
          "type": "uint256"
        }
      ],
      "name": "contributeToCampaign",
      "outputs": [],
      "stateMutability": "payable",
      "type": "function"
    },
    {
      "inputs": [
        {
          "internalType": "string",
          "name": "_title",
          "type": "string"
        },
        {
          "internalType": "string",
          "name": "_description",
          "type": "string"
        },
        {
          "internalType": "uint256",
          "name": "_targetAmount",
          "type": "uint256"
        },
        {
          "internalType": "uint256",
          "name": "_duration",
          "type": "uint256"
        }
      ],
      "name": "createCampaign",
      "outputs": [
        {
          "internalType": "uint256",
          "name": "",
          "type": "uint256"
        }
      ],
      "stateMutability": "nonpayable",
      "type": "function"
    },
    {
      "inputs": [
        {
          "internalType": "uint256",
          "name": "_campaignId",
          "type": "uint256"
        }
      ],
      "name": "getCampaignDetails",
      "outputs": [
        {
          "internalType": "address",
          "name": "",
          "type": "address"
        },
        {
          "internalType": "string",
          "name": "",
          "type": "string"
        },
        {
          "internalType": "string",
          "name": "",
          "type": "string"
        },
        {
          "internalType": "uint256",
          "name": "",
          "type": "uint256"
        },
        {
          "internalType": "uint256",
          "name": "",
          "type": "uint256"
        },
        {
          "internalType": "uint256",
          "name": "",
          "type": "uint256"
        },
        {
          "internalType": "bool",
          "name": "",
          "type": "bool"
        }
      ],
      "stateMutability": "view",
      "type": "function"
    },
    {
      "inputs": [
        {
          "internalType": "uint256",
          "name": "_campaignId",
          "type": "uint256"
        },
        {
          "internalType": "address",
          "name": "_owner",
          "type": "address"
        }
      ],
      "name": "withDrawFunds",
      "outputs": [],
      "stateMutability": "payable",
      "type": "function"
    }
  ],
  "bytecode": "0x6080604052348015600f57600080fd5b506117918061001f6000396000f3fe6080604052600436106100555760003560e01c80630b7ef89b1461005a578063141961bc146100765780637274e30d146100b9578063a318f269146100e4578063d993de6214610121578063e7c3965f14610164575b600080fd5b610074600480360381019061006f9190610ac2565b610180565b005b34801561008257600080fd5b5061009d60048036038101906100989190610ac2565b6102e3565b6040516100b09796959493929190610bea565b60405180910390f35b3480156100c557600080fd5b506100ce610462565b6040516100db9190610c67565b60405180910390f35b3480156100f057600080fd5b5061010b60048036038101906101069190610db7565b610468565b6040516101189190610c67565b60405180910390f35b34801561012d57600080fd5b5061014860048036038101906101439190610ac2565b61067b565b60405161015b9796959493929190610e77565b60405180910390f35b61017e60048036038101906101799190610f20565b610897565b005b600073ffffffffffffffffffffffffffffffffffffffff1660008083815260200190815260200160002060000160009054906101000a900473ffffffffffffffffffffffffffffffffffffffff1673ffffffffffffffffffffffffffffffffffffffff1603610224576040517f08c379a000000000000000000000000000000000000000000000000000000000815260040161021b90610fac565b60405180910390fd5b60003411610267576040517f08c379a000000000000000000000000000000000000000000000000000000000815260040161025e9061103e565b60405180910390fd5b6000806000838152602001908152602001600020905080600401544211156102c4576040517f08c379a00000000000000000000000000000000000000000000000000000000081526004016102bb906110aa565b60405180910390fd5b348160050160008282546102d891906110f9565b925050819055505050565b60006020528060005260406000206000915090508060000160009054906101000a900473ffffffffffffffffffffffffffffffffffffffff169080600101805461032c9061115c565b80601f01602080910402602001604051908101604052809291908181526020018280546103589061115c565b80156103a55780601f1061037a576101008083540402835291602001916103a5565b820191906000526020600020905b81548152906001019060200180831161038857829003601f168201915b5050505050908060020180546103ba9061115c565b80601f01602080910402602001604051908101604052809291908181526020018280546103e69061115c565b80156104335780601f1061040857610100808354040283529160200191610433565b820191906000526020600020905b81548152906001019060200180831161041657829003601f168201915b5050505050908060030154908060040154908060050154908060060160009054906101000a900460ff16905087565b60015481565b60008083116104ac576040517f08c379a00000000000000000000000000000000000000000000000000000000081526004016104a3906111ff565b60405180910390fd5b600082116104ef576040517f08c379a00000000000000000000000000000000000000000000000000000000081526004016104e69061126b565b60405180910390fd5b600160008154809291906105029061128b565b91905055506000824261051591906110f9565b90506040518060e001604052803373ffffffffffffffffffffffffffffffffffffffff1681526020018781526020018681526020018581526020018281526020016000815260200160001515815250600080600154815260200190815260200160002060008201518160000160006101000a81548173ffffffffffffffffffffffffffffffffffffffff021916908373ffffffffffffffffffffffffffffffffffffffff16021790555060208201518160010190816105d4919061147f565b5060408201518160020190816105ea919061147f565b50606082015181600301556080820151816004015560a0820151816005015560c08201518160060160006101000a81548160ff0219169083151502179055509050507fdc26653af5b99b2da33e2ad69ee6600d9aeccc82b034501db4338309615ca23860015433888785604051610665959493929190611551565b60405180910390a1600154915050949350505050565b600060608060008060008060008060008a81526020019081526020016000206040518060e00160405290816000820160009054906101000a900473ffffffffffffffffffffffffffffffffffffffff1673ffffffffffffffffffffffffffffffffffffffff1673ffffffffffffffffffffffffffffffffffffffff16815260200160018201805461070b9061115c565b80601f01602080910402602001604051908101604052809291908181526020018280546107379061115c565b80156107845780601f1061075957610100808354040283529160200191610784565b820191906000526020600020905b81548152906001019060200180831161076757829003601f168201915b5050505050815260200160028201805461079d9061115c565b80601f01602080910402602001604051908101604052809291908181526020018280546107c99061115c565b80156108165780601f106107eb57610100808354040283529160200191610816565b820191906000526020600020905b8154815290600101906020018083116107f957829003601f168201915b505050505081526020016003820154815260200160048201548152602001600582015481526020016006820160009054906101000a900460ff1615151515815250509050806000015181602001518260400151836060015184608001518560a001518660c00151975097509750975097509750975050919395979092949650565b600080600084815260200190815260200160002090508173ffffffffffffffffffffffffffffffffffffffff163373ffffffffffffffffffffffffffffffffffffffff161461091b576040517f08c379a0000000000000000000000000000000000000000000000000000000008152600401610912906115f7565b60405180910390fd5b80600401544211610961576040517f08c379a000000000000000000000000000000000000000000000000000000000815260040161095890611663565b60405180910390fd5b8060030154816005015410156109ac576040517f08c379a00000000000000000000000000000000000000000000000000000000081526004016109a3906116cf565b60405180910390fd5b8060060160009054906101000a900460ff16156109fe576040517f08c379a00000000000000000000000000000000000000000000000000000000081526004016109f59061173b565b60405180910390fd5b6000816005015490508160000160009054906101000a900473ffffffffffffffffffffffffffffffffffffffff1673ffffffffffffffffffffffffffffffffffffffff166108fc829081150290604051600060405180830381858888f19350505050158015610a71573d6000803e3d6000fd5b5050505050565b6000604051905090565b600080fd5b600080fd5b6000819050919050565b610a9f81610a8c565b8114610aaa57600080fd5b50565b600081359050610abc81610a96565b92915050565b600060208284031215610ad857610ad7610a82565b5b6000610ae684828501610aad565b91505092915050565b600073ffffffffffffffffffffffffffffffffffffffff82169050919050565b6000610b1a82610aef565b9050919050565b610b2a81610b0f565b82525050565b600081519050919050565b600082825260208201905092915050565b60005b83811015610b6a578082015181840152602081019050610b4f565b60008484015250505050565b6000601f19601f8301169050919050565b6000610b9282610b30565b610b9c8185610b3b565b9350610bac818560208601610b4c565b610bb581610b76565b840191505092915050565b610bc981610a8c565b82525050565b60008115159050919050565b610be481610bcf565b82525050565b600060e082019050610bff600083018a610b21565b8181036020830152610c118189610b87565b90508181036040830152610c258188610b87565b9050610c346060830187610bc0565b610c416080830186610bc0565b610c4e60a0830185610bc0565b610c5b60c0830184610bdb565b98975050505050505050565b6000602082019050610c7c6000830184610bc0565b92915050565b600080fd5b600080fd5b7f4e487b7100000000000000000000000000000000000000000000000000000000600052604160045260246000fd5b610cc482610b76565b810181811067ffffffffffffffff82111715610ce357610ce2610c8c565b5b80604052505050565b6000610cf6610a78565b9050610d028282610cbb565b919050565b600067ffffffffffffffff821115610d2257610d21610c8c565b5b610d2b82610b76565b9050602081019050919050565b82818337600083830152505050565b6000610d5a610d5584610d07565b610cec565b905082815260208101848484011115610d7657610d75610c87565b5b610d81848285610d38565b509392505050565b600082601f830112610d9e57610d9d610c82565b5b8135610dae848260208601610d47565b91505092915050565b60008060008060808587031215610dd157610dd0610a82565b5b600085013567ffffffffffffffff811115610def57610dee610a87565b5b610dfb87828801610d89565b945050602085013567ffffffffffffffff811115610e1c57610e1b610a87565b5b610e2887828801610d89565b9350506040610e3987828801610aad565b9250506060610e4a87828801610aad565b91505092959194509250565b6000610e6182610aef565b9050919050565b610e7181610e56565b82525050565b600060e082019050610e8c600083018a610e68565b8181036020830152610e9e8189610b87565b90508181036040830152610eb28188610b87565b9050610ec16060830187610bc0565b610ece6080830186610bc0565b610edb60a0830185610bc0565b610ee860c0830184610bdb565b98975050505050505050565b610efd81610e56565b8114610f0857600080fd5b50565b600081359050610f1a81610ef4565b92915050565b60008060408385031215610f3757610f36610a82565b5b6000610f4585828601610aad565b9250506020610f5685828601610f0b565b9150509250929050565b7f43616d706169676e20646f6573206e6f74206578697374000000000000000000600082015250565b6000610f96601783610b3b565b9150610fa182610f60565b602082019050919050565b60006020820190508181036000830152610fc581610f89565b9050919050565b7f436f6e747269627574696f6e73206d757374206265206772656174657220746860008201527f616e203000000000000000000000000000000000000000000000000000000000602082015250565b6000611028602483610b3b565b915061103382610fcc565b604082019050919050565b600060208201905081810360008301526110578161101b565b9050919050565b7f43616d706169676e204578706972656400000000000000000000000000000000600082015250565b6000611094601083610b3b565b915061109f8261105e565b602082019050919050565b600060208201905081810360008301526110c381611087565b9050919050565b7f4e487b7100000000000000000000000000000000000000000000000000000000600052601160045260246000fd5b600061110482610a8c565b915061110f83610a8c565b9250828201905080821115611127576111266110ca565b5b92915050565b7f4e487b7100000000000000000000000000000000000000000000000000000000600052602260045260246000fd5b6000600282049050600182168061117457607f821691505b6020821081036111875761118661112d565b5b50919050565b7f54617267657420416d6f756e74206d757374206265206772656174657220746860008201527f616e203000000000000000000000000000000000000000000000000000000000602082015250565b60006111e9602483610b3b565b91506111f48261118d565b604082019050919050565b60006020820190508181036000830152611218816111dc565b9050919050565b7f4475726174696f6e206d7573742062652067726561746572207468616e203000600082015250565b6000611255601f83610b3b565b91506112608261121f565b602082019050919050565b6000602082019050818103600083015261128481611248565b9050919050565b600061129682610a8c565b91507fffffffffffffffffffffffffffffffffffffffffffffffffffffffffffffffff82036112c8576112c76110ca565b5b600182019050919050565b60008190508160005260206000209050919050565b60006020601f8301049050919050565b600082821b905092915050565b6000600883026113357fffffffffffffffffffffffffffffffffffffffffffffffffffffffffffffffff826112f8565b61133f86836112f8565b95508019841693508086168417925050509392505050565b6000819050919050565b600061137c61137761137284610a8c565b611357565b610a8c565b9050919050565b6000819050919050565b61139683611361565b6113aa6113a282611383565b848454611305565b825550505050565b600090565b6113bf6113b2565b6113ca81848461138d565b505050565b5b818110156113ee576113e36000826113b7565b6001810190506113d0565b5050565b601f82111561143357611404816112d3565b61140d846112e8565b8101602085101561141c578190505b611430611428856112e8565b8301826113cf565b50505b505050565b600082821c905092915050565b600061145660001984600802611438565b1980831691505092915050565b600061146f8383611445565b9150826002028217905092915050565b61148882610b30565b67ffffffffffffffff8111156114a1576114a0610c8c565b5b6114ab825461115c565b6114b68282856113f2565b600060209050601f8311600181146114e957600084156114d7578287015190505b6114e18582611463565b865550611549565b601f1984166114f7866112d3565b60005b8281101561151f578489015182556001820191506020850194506020810190506114fa565b8683101561153c5784890151611538601f891682611445565b8355505b6001600288020188555050505b505050505050565b600060a0820190506115666000830188610bc0565b6115736020830187610e68565b81810360408301526115858186610b87565b90506115946060830185610bc0565b6115a16080830184610bc0565b9695505050505050565b7f41636365737320556e617574686f72697a656400000000000000000000000000600082015250565b60006115e1601383610b3b565b91506115ec826115ab565b602082019050919050565b60006020820190508181036000830152611610816115d4565b9050919050565b7f43616d706169676e205374696c6c206163746976650000000000000000000000600082015250565b600061164d601583610b3b565b915061165882611617565b602082019050919050565b6000602082019050818103600083015261167c81611640565b9050919050565b7f54617267657420416d6f756e74204e6f74205265616368656400000000000000600082015250565b60006116b9601983610b3b565b91506116c482611683565b602082019050919050565b600060208201905081810360008301526116e8816116ac565b9050919050565b7f596f75206861766520616c72656164792077697468647261776e2066756e6473600082015250565b6000611725602083610b3b565b9150611730826116ef565b602082019050919050565b6000602082019050818103600083015261175481611718565b905091905056fea26469706673582212203142e09262c19cc0d08dad39035003c53c444b734111a91f49ba4dd66b00c62064736f6c634300081c0033",
  "linkReferences": {},
  "deployedLinkReferences": {}
}